{
  "_format": "hh-sol-artifact-1",
  "contractName": "psychpunks",
  "sourceName": "contracts/psych_punks.sol",
  "abi": [
    {
      "inputs": [
        {
          "internalType": "string",
          "name": "_name",
          "type": "string"
        },
        {
          "internalType": "string",
          "name": "_symbol",
          "type": "string"
        },
        {
          "internalType": "string",
          "name": "_initBaseURI",
          "type": "string"
        }
      ],
      "stateMutability": "nonpayable",
      "type": "constructor"
    },
    {
      "anonymous": false,
      "inputs": [
        {
          "indexed": true,
          "internalType": "address",
          "name": "owner",
          "type": "address"
        },
        {
          "indexed": true,
          "internalType": "address",
          "name": "approved",
          "type": "address"
        },
        {
          "indexed": true,
          "internalType": "uint256",
          "name": "tokenId",
          "type": "uint256"
        }
      ],
      "name": "Approval",
      "type": "event"
    },
    {
      "anonymous": false,
      "inputs": [
        {
          "indexed": true,
          "internalType": "address",
          "name": "owner",
          "type": "address"
        },
        {
          "indexed": true,
          "internalType": "address",
          "name": "operator",
          "type": "address"
        },
        {
          "indexed": false,
          "internalType": "bool",
          "name": "approved",
          "type": "bool"
        }
      ],
      "name": "ApprovalForAll",
      "type": "event"
    },
    {
      "anonymous": false,
      "inputs": [
        {
          "indexed": true,
          "internalType": "address",
          "name": "previousOwner",
          "type": "address"
        },
        {
          "indexed": true,
          "internalType": "address",
          "name": "newOwner",
          "type": "address"
        }
      ],
      "name": "OwnershipTransferred",
      "type": "event"
    },
    {
      "anonymous": false,
      "inputs": [
        {
          "indexed": true,
          "internalType": "address",
          "name": "from",
          "type": "address"
        },
        {
          "indexed": true,
          "internalType": "address",
          "name": "to",
          "type": "address"
        },
        {
          "indexed": true,
          "internalType": "uint256",
          "name": "tokenId",
          "type": "uint256"
        }
      ],
      "name": "Transfer",
      "type": "event"
    },
    {
      "inputs": [
        {
          "internalType": "string",
          "name": "_newBaseExtestion",
          "type": "string"
        }
      ],
      "name": "SetBaseExtension",
      "outputs": [],
      "stateMutability": "nonpayable",
      "type": "function"
    },
    {
      "inputs": [
        {
          "internalType": "address",
          "name": "to",
          "type": "address"
        },
        {
          "internalType": "uint256",
          "name": "tokenId",
          "type": "uint256"
        }
      ],
      "name": "approve",
      "outputs": [],
      "stateMutability": "nonpayable",
      "type": "function"
    },
    {
      "inputs": [
        {
          "internalType": "address",
          "name": "owner",
          "type": "address"
        }
      ],
      "name": "balanceOf",
      "outputs": [
        {
          "internalType": "uint256",
          "name": "",
          "type": "uint256"
        }
      ],
      "stateMutability": "view",
      "type": "function"
    },
    {
      "inputs": [],
      "name": "baseExtenstion",
      "outputs": [
        {
          "internalType": "string",
          "name": "",
          "type": "string"
        }
      ],
      "stateMutability": "view",
      "type": "function"
    },
    {
      "inputs": [],
      "name": "baseURI",
      "outputs": [
        {
          "internalType": "string",
          "name": "",
          "type": "string"
        }
      ],
      "stateMutability": "view",
      "type": "function"
    },
    {
      "inputs": [],
      "name": "cost",
      "outputs": [
        {
          "internalType": "uint256",
          "name": "",
          "type": "uint256"
        }
      ],
      "stateMutability": "view",
      "type": "function"
    },
    {
      "inputs": [
        {
          "internalType": "uint256",
          "name": "tokenId",
          "type": "uint256"
        }
      ],
      "name": "getApproved",
      "outputs": [
        {
          "internalType": "address",
          "name": "",
          "type": "address"
        }
      ],
      "stateMutability": "view",
      "type": "function"
    },
    {
      "inputs": [
        {
          "internalType": "address",
          "name": "owner",
          "type": "address"
        },
        {
          "internalType": "address",
          "name": "operator",
          "type": "address"
        }
      ],
      "name": "isApprovedForAll",
      "outputs": [
        {
          "internalType": "bool",
          "name": "",
          "type": "bool"
        }
      ],
      "stateMutability": "view",
      "type": "function"
    },
    {
      "inputs": [],
      "name": "maxSupply",
      "outputs": [
        {
          "internalType": "uint256",
          "name": "",
          "type": "uint256"
        }
      ],
      "stateMutability": "view",
      "type": "function"
    },
    {
      "inputs": [
        {
          "internalType": "address",
          "name": "_to",
          "type": "address"
        },
        {
          "internalType": "uint256",
          "name": "_mintAmount",
          "type": "uint256"
        }
      ],
      "name": "mint",
      "outputs": [],
      "stateMutability": "payable",
      "type": "function"
    },
    {
      "inputs": [],
      "name": "name",
      "outputs": [
        {
          "internalType": "string",
          "name": "",
          "type": "string"
        }
      ],
      "stateMutability": "view",
      "type": "function"
    },
    {
      "inputs": [],
      "name": "owner",
      "outputs": [
        {
          "internalType": "address",
          "name": "",
          "type": "address"
        }
      ],
      "stateMutability": "view",
      "type": "function"
    },
    {
      "inputs": [
        {
          "internalType": "uint256",
          "name": "tokenId",
          "type": "uint256"
        }
      ],
      "name": "ownerOf",
      "outputs": [
        {
          "internalType": "address",
          "name": "",
          "type": "address"
        }
      ],
      "stateMutability": "view",
      "type": "function"
    },
    {
      "inputs": [
        {
          "internalType": "bool",
          "name": "_state",
          "type": "bool"
        }
      ],
      "name": "pause",
      "outputs": [],
      "stateMutability": "nonpayable",
      "type": "function"
    },
    {
      "inputs": [],
      "name": "paused",
      "outputs": [
        {
          "internalType": "bool",
          "name": "",
          "type": "bool"
        }
      ],
      "stateMutability": "view",
      "type": "function"
    },
    {
      "inputs": [],
      "name": "renounceOwnership",
      "outputs": [],
      "stateMutability": "nonpayable",
      "type": "function"
    },
    {
      "inputs": [
        {
          "internalType": "address",
          "name": "from",
          "type": "address"
        },
        {
          "internalType": "address",
          "name": "to",
          "type": "address"
        },
        {
          "internalType": "uint256",
          "name": "tokenId",
          "type": "uint256"
        }
      ],
      "name": "safeTransferFrom",
      "outputs": [],
      "stateMutability": "nonpayable",
      "type": "function"
    },
    {
      "inputs": [
        {
          "internalType": "address",
          "name": "from",
          "type": "address"
        },
        {
          "internalType": "address",
          "name": "to",
          "type": "address"
        },
        {
          "internalType": "uint256",
          "name": "tokenId",
          "type": "uint256"
        },
        {
          "internalType": "bytes",
          "name": "_data",
          "type": "bytes"
        }
      ],
      "name": "safeTransferFrom",
      "outputs": [],
      "stateMutability": "nonpayable",
      "type": "function"
    },
    {
      "inputs": [
        {
          "internalType": "address",
          "name": "operator",
          "type": "address"
        },
        {
          "internalType": "bool",
          "name": "approved",
          "type": "bool"
        }
      ],
      "name": "setApprovalForAll",
      "outputs": [],
      "stateMutability": "nonpayable",
      "type": "function"
    },
    {
      "inputs": [
        {
          "internalType": "string",
          "name": "_newBaseURI",
          "type": "string"
        }
      ],
      "name": "setBaseURI",
      "outputs": [],
      "stateMutability": "nonpayable",
      "type": "function"
    },
    {
      "inputs": [
        {
          "internalType": "uint256",
          "name": "_newCost",
          "type": "uint256"
        }
      ],
      "name": "setCost",
      "outputs": [],
      "stateMutability": "nonpayable",
      "type": "function"
    },
    {
      "inputs": [
        {
          "internalType": "uint256",
          "name": "_newmaxMintAmount",
          "type": "uint256"
        }
      ],
      "name": "setmaxMintAmount",
      "outputs": [],
      "stateMutability": "nonpayable",
      "type": "function"
    },
    {
      "inputs": [
        {
          "internalType": "bytes4",
          "name": "interfaceId",
          "type": "bytes4"
        }
      ],
      "name": "supportsInterface",
      "outputs": [
        {
          "internalType": "bool",
          "name": "",
          "type": "bool"
        }
      ],
      "stateMutability": "view",
      "type": "function"
    },
    {
      "inputs": [],
      "name": "symbol",
      "outputs": [
        {
          "internalType": "string",
          "name": "",
          "type": "string"
        }
      ],
      "stateMutability": "view",
      "type": "function"
    },
    {
      "inputs": [
        {
          "internalType": "uint256",
          "name": "index",
          "type": "uint256"
        }
      ],
      "name": "tokenByIndex",
      "outputs": [
        {
          "internalType": "uint256",
          "name": "",
          "type": "uint256"
        }
      ],
      "stateMutability": "view",
      "type": "function"
    },
    {
      "inputs": [
        {
          "internalType": "address",
          "name": "owner",
          "type": "address"
        },
        {
          "internalType": "uint256",
          "name": "index",
          "type": "uint256"
        }
      ],
      "name": "tokenOfOwnerByIndex",
      "outputs": [
        {
          "internalType": "uint256",
          "name": "",
          "type": "uint256"
        }
      ],
      "stateMutability": "view",
      "type": "function"
    },
    {
      "inputs": [
        {
          "internalType": "uint256",
          "name": "tokenId",
          "type": "uint256"
        }
      ],
      "name": "tokenURI",
      "outputs": [
        {
          "internalType": "string",
          "name": "",
          "type": "string"
        }
      ],
      "stateMutability": "view",
      "type": "function"
    },
    {
      "inputs": [],
      "name": "totalSupply",
      "outputs": [
        {
          "internalType": "uint256",
          "name": "",
          "type": "uint256"
        }
      ],
      "stateMutability": "view",
      "type": "function"
    },
    {
      "inputs": [
        {
          "internalType": "address",
          "name": "from",
          "type": "address"
        },
        {
          "internalType": "address",
          "name": "to",
          "type": "address"
        },
        {
          "internalType": "uint256",
          "name": "tokenId",
          "type": "uint256"
        }
      ],
      "name": "transferFrom",
      "outputs": [],
      "stateMutability": "nonpayable",
      "type": "function"
    },
    {
      "inputs": [
        {
          "internalType": "address",
          "name": "newOwner",
          "type": "address"
        }
      ],
      "name": "transferOwnership",
      "outputs": [],
      "stateMutability": "nonpayable",
      "type": "function"
    },
    {
      "inputs": [
        {
          "internalType": "address",
          "name": "_owner",
          "type": "address"
        }
      ],
      "name": "walletOfOwner",
      "outputs": [
        {
          "internalType": "uint256[]",
          "name": "",
          "type": "uint256[]"
        }
      ],
      "stateMutability": "view",
      "type": "function"
    },
    {
      "inputs": [],
      "name": "withdraw",
      "outputs": [],
      "stateMutability": "payable",
      "type": "function"
    }
  ],
  "bytecode": "0x60806040526040518060400160405280600581526020017f2e6a736f6e000000000000000000000000000000000000000000000000000000815250600c90805190602001906200005192919062000e77565b50666a94d74f430000600d556064600e55600a600f556000601060006101000a81548160ff0219169083151502179055503480156200008f57600080fd5b5060405162005715380380620057158339818101604052810190620000b5919062000fdc565b82828160009080519060200190620000cf92919062000e77565b508060019080519060200190620000e892919062000e77565b5050506200010b620000ff6200015e60201b60201c565b6200016660201b60201c565b6200011c816200022c60201b60201c565b6200012f33600a620002d760201b60201c565b6200014233600a620002d760201b60201c565b6200015533600a620002d760201b60201c565b505050620016dd565b600033905090565b6000600a60009054906101000a900473ffffffffffffffffffffffffffffffffffffffff16905081600a60006101000a81548173ffffffffffffffffffffffffffffffffffffffff021916908373ffffffffffffffffffffffffffffffffffffffff1602179055508173ffffffffffffffffffffffffffffffffffffffff168173ffffffffffffffffffffffffffffffffffffffff167f8be0079c531659141344cd1fd0a4f28419497f9722a3daafe3b4186f6b6457e060405160405180910390a35050565b6200023c6200015e60201b60201c565b73ffffffffffffffffffffffffffffffffffffffff1662000262620003ec60201b60201c565b73ffffffffffffffffffffffffffffffffffffffff1614620002bb576040517f08c379a0000000000000000000000000000000000000000000000000000000008152600401620002b29062001352565b60405180910390fd5b80600b9080519060200190620002d392919062000e77565b5050565b6000620002e96200041660201b60201c565b9050601060009054906101000a900460ff16156200030657600080fd5b600082116200031457600080fd5b600f548211156200032457600080fd5b600e54828262000335919062001408565b11156200034157600080fd5b62000351620003ec60201b60201c565b73ffffffffffffffffffffffffffffffffffffffff163373ffffffffffffffffffffffffffffffffffffffff1614620003a25781600d5462000394919062001465565b341015620003a157600080fd5b5b6000600190505b828111620003e657620003d0848284620003c4919062001408565b6200042360201b60201c565b8080620003dd90620015d7565b915050620003a9565b50505050565b6000600a60009054906101000a900473ffffffffffffffffffffffffffffffffffffffff16905090565b6000600880549050905090565b620004458282604051806020016040528060008152506200044960201b60201c565b5050565b6200045b8383620004b760201b60201c565b6200047060008484846200069d60201b60201c565b620004b2576040517f08c379a0000000000000000000000000000000000000000000000000000000008152600401620004a990620012ca565b60405180910390fd5b505050565b600073ffffffffffffffffffffffffffffffffffffffff168273ffffffffffffffffffffffffffffffffffffffff1614156200052a576040517f08c379a0000000000000000000000000000000000000000000000000000000008152600401620005219062001330565b60405180910390fd5b6200053b816200085760201b60201c565b156200057e576040517f08c379a00000000000000000000000000000000000000000000000000000000081526004016200057590620012ec565b60405180910390fd5b6200059260008383620008c360201b60201c565b6001600360008473ffffffffffffffffffffffffffffffffffffffff1673ffffffffffffffffffffffffffffffffffffffff1681526020019081526020016000206000828254620005e4919062001408565b92505081905550816002600083815260200190815260200160002060006101000a81548173ffffffffffffffffffffffffffffffffffffffff021916908373ffffffffffffffffffffffffffffffffffffffff160217905550808273ffffffffffffffffffffffffffffffffffffffff16600073ffffffffffffffffffffffffffffffffffffffff167fddf252ad1be2c89b69c2b068fc378daa952ba7f163c4a11628f55a4df523b3ef60405160405180910390a45050565b6000620006cb8473ffffffffffffffffffffffffffffffffffffffff1662000a0a60201b620019781760201c565b156200084a578373ffffffffffffffffffffffffffffffffffffffff1663150b7a02620006fd6200015e60201b60201c565b8786866040518563ffffffff1660e01b815260040162000721949392919062001276565b602060405180830381600087803b1580156200073c57600080fd5b505af19250505080156200077057506040513d601f19601f820116820180604052508101906200076d919062000fb0565b60015b620007f9573d8060008114620007a3576040519150601f19603f3d011682016040523d82523d6000602084013e620007a8565b606091505b50600081511415620007f1576040517f08c379a0000000000000000000000000000000000000000000000000000000008152600401620007e890620012ca565b60405180910390fd5b805181602001fd5b63150b7a0260e01b7bffffffffffffffffffffffffffffffffffffffffffffffffffffffff1916817bffffffffffffffffffffffffffffffffffffffffffffffffffffffff1916149150506200084f565b600190505b949350505050565b60008073ffffffffffffffffffffffffffffffffffffffff166002600084815260200190815260200160002060009054906101000a900473ffffffffffffffffffffffffffffffffffffffff1673ffffffffffffffffffffffffffffffffffffffff1614159050919050565b620008db83838362000a1d60201b6200198b1760201c565b600073ffffffffffffffffffffffffffffffffffffffff168373ffffffffffffffffffffffffffffffffffffffff1614156200092857620009228162000a2260201b60201c565b62000970565b8173ffffffffffffffffffffffffffffffffffffffff168373ffffffffffffffffffffffffffffffffffffffff16146200096f576200096e838262000a6b60201b60201c565b5b5b600073ffffffffffffffffffffffffffffffffffffffff168273ffffffffffffffffffffffffffffffffffffffff161415620009bd57620009b78162000be860201b60201c565b62000a05565b8273ffffffffffffffffffffffffffffffffffffffff168273ffffffffffffffffffffffffffffffffffffffff161462000a045762000a03828262000d3060201b60201c565b5b5b505050565b600080823b905060008111915050919050565b505050565b6008805490506009600083815260200190815260200160002081905550600881908060018154018082558091505060019003906000526020600020016000909190919091505550565b6000600162000a858462000dbc60201b620012491760201c565b62000a919190620014c6565b905060006007600084815260200190815260200160002054905081811462000b77576000600660008673ffffffffffffffffffffffffffffffffffffffff1673ffffffffffffffffffffffffffffffffffffffff168152602001908152602001600020600084815260200190815260200160002054905080600660008773ffffffffffffffffffffffffffffffffffffffff1673ffffffffffffffffffffffffffffffffffffffff168152602001908152602001600020600084815260200190815260200160002081905550816007600083815260200190815260200160002081905550505b6007600084815260200190815260200160002060009055600660008573ffffffffffffffffffffffffffffffffffffffff1673ffffffffffffffffffffffffffffffffffffffff16815260200190815260200160002060008381526020019081526020016000206000905550505050565b6000600160088054905062000bfe9190620014c6565b905060006009600084815260200190815260200160002054905060006008838154811062000c55577f4e487b7100000000000000000000000000000000000000000000000000000000600052603260045260246000fd5b90600052602060002001549050806008838154811062000c9e577f4e487b7100000000000000000000000000000000000000000000000000000000600052603260045260246000fd5b90600052602060002001819055508160096000838152602001908152602001600020819055506009600085815260200190815260200160002060009055600880548062000d14577f4e487b7100000000000000000000000000000000000000000000000000000000600052603160045260246000fd5b6001900381819060005260206000200160009055905550505050565b600062000d488362000dbc60201b620012491760201c565b905081600660008573ffffffffffffffffffffffffffffffffffffffff1673ffffffffffffffffffffffffffffffffffffffff168152602001908152602001600020600083815260200190815260200160002081905550806007600084815260200190815260200160002081905550505050565b60008073ffffffffffffffffffffffffffffffffffffffff168273ffffffffffffffffffffffffffffffffffffffff16141562000e30576040517f08c379a000000000000000000000000000000000000000000000000000000000815260040162000e27906200130e565b60405180910390fd5b600360008373ffffffffffffffffffffffffffffffffffffffff1673ffffffffffffffffffffffffffffffffffffffff168152602001908152602001600020549050919050565b82805462000e8590620015a1565b90600052602060002090601f01602090048101928262000ea9576000855562000ef5565b82601f1062000ec457805160ff191683800117855562000ef5565b8280016001018555821562000ef5579182015b8281111562000ef457825182559160200191906001019062000ed7565b5b50905062000f04919062000f08565b5090565b5b8082111562000f2357600081600090555060010162000f09565b5090565b600062000f3e62000f3884620013a8565b62001374565b90508281526020810184848401111562000f5757600080fd5b62000f648482856200156b565b509392505050565b60008151905062000f7d81620016c3565b92915050565b600082601f83011262000f9557600080fd5b815162000fa784826020860162000f27565b91505092915050565b60006020828403121562000fc357600080fd5b600062000fd38482850162000f6c565b91505092915050565b60008060006060848603121562000ff257600080fd5b600084015167ffffffffffffffff8111156200100d57600080fd5b6200101b8682870162000f83565b935050602084015167ffffffffffffffff8111156200103957600080fd5b620010478682870162000f83565b925050604084015167ffffffffffffffff8111156200106557600080fd5b620010738682870162000f83565b9150509250925092565b620010888162001501565b82525050565b60006200109b82620013db565b620010a78185620013e6565b9350620010b98185602086016200156b565b620010c481620016b2565b840191505092915050565b6000620010de603283620013f7565b91507f4552433732313a207472616e7366657220746f206e6f6e20455243373231526560008301527f63656976657220696d706c656d656e74657200000000000000000000000000006020830152604082019050919050565b600062001146601c83620013f7565b91507f4552433732313a20746f6b656e20616c7265616479206d696e746564000000006000830152602082019050919050565b600062001188602a83620013f7565b91507f4552433732313a2062616c616e636520717565727920666f7220746865207a6560008301527f726f2061646472657373000000000000000000000000000000000000000000006020830152604082019050919050565b6000620011f0602083620013f7565b91507f4552433732313a206d696e7420746f20746865207a65726f20616464726573736000830152602082019050919050565b600062001232602083620013f7565b91507f4f776e61626c653a2063616c6c6572206973206e6f7420746865206f776e65726000830152602082019050919050565b620012708162001561565b82525050565b60006080820190506200128d60008301876200107d565b6200129c60208301866200107d565b620012ab604083018562001265565b8181036060830152620012bf81846200108e565b905095945050505050565b60006020820190508181036000830152620012e581620010cf565b9050919050565b60006020820190508181036000830152620013078162001137565b9050919050565b60006020820190508181036000830152620013298162001179565b9050919050565b600060208201905081810360008301526200134b81620011e1565b9050919050565b600060208201905081810360008301526200136d8162001223565b9050919050565b6000604051905081810181811067ffffffffffffffff821117156200139e576200139d62001683565b5b8060405250919050565b600067ffffffffffffffff821115620013c657620013c562001683565b5b601f19601f8301169050602081019050919050565b600081519050919050565b600082825260208201905092915050565b600082825260208201905092915050565b6000620014158262001561565b9150620014228362001561565b9250827fffffffffffffffffffffffffffffffffffffffffffffffffffffffffffffffff038211156200145a576200145962001625565b5b828201905092915050565b6000620014728262001561565b91506200147f8362001561565b9250817fffffffffffffffffffffffffffffffffffffffffffffffffffffffffffffffff0483118215151615620014bb57620014ba62001625565b5b828202905092915050565b6000620014d38262001561565b9150620014e08362001561565b925082821015620014f657620014f562001625565b5b828203905092915050565b60006200150e8262001541565b9050919050565b60007fffffffff0000000000000000000000000000000000000000000000000000000082169050919050565b600073ffffffffffffffffffffffffffffffffffffffff82169050919050565b6000819050919050565b60005b838110156200158b5780820151818401526020810190506200156e565b838111156200159b576000848401525b50505050565b60006002820490506001821680620015ba57607f821691505b60208210811415620015d157620015d062001654565b5b50919050565b6000620015e48262001561565b91507fffffffffffffffffffffffffffffffffffffffffffffffffffffffffffffffff8214156200161a576200161962001625565b5b600182019050919050565b7f4e487b7100000000000000000000000000000000000000000000000000000000600052601160045260246000fd5b7f4e487b7100000000000000000000000000000000000000000000000000000000600052602260045260246000fd5b7f4e487b7100000000000000000000000000000000000000000000000000000000600052604160045260246000fd5b6000601f19601f8301169050919050565b620016ce8162001515565b8114620016da57600080fd5b50565b61402880620016ed6000396000f3fe6080604052600436106101e35760003560e01c80635c975abb116101025780639585f5af11610095578063c87b56dd11610064578063c87b56dd146106c2578063d5abeb01146106ff578063e985e9c51461072a578063f2fde38b14610767576101e3565b80639585f5af1461061a57806395d89b4114610645578063a22cb46514610670578063b88d4fde14610699576101e3565b806370a08231116100d157806370a0823114610572578063715018a6146105af5780637f00c7a6146105c65780638da5cb5b146105ef576101e3565b80635c975abb146104b65780636071cea6146104e15780636352211e1461050a5780636c0360eb14610547576101e3565b80632f745c591161017a578063438b630011610149578063438b6300146103ea57806344a0d68a146104275780634f6ccce71461045057806355f804b31461048d576101e3565b80632f745c591461035e5780633ccfd60b1461039b57806340c10f19146103a557806342842e0e146103c1576101e3565b8063095ea7b3116101b6578063095ea7b3146102b657806313faede6146102df57806318160ddd1461030a57806323b872dd14610335576101e3565b806301ffc9a7146101e857806302329a291461022557806306fdde031461024e578063081812fc14610279575b600080fd5b3480156101f457600080fd5b5061020f600480360381019061020a9190612eba565b610790565b60405161021c9190613898565b60405180910390f35b34801561023157600080fd5b5061024c60048036038101906102479190612e91565b61080a565b005b34801561025a57600080fd5b506102636108a3565b60405161027091906138b3565b60405180910390f35b34801561028557600080fd5b506102a0600480360381019061029b9190612f4d565b610935565b6040516102ad919061380f565b60405180910390f35b3480156102c257600080fd5b506102dd60048036038101906102d89190612e55565b6109ba565b005b3480156102eb57600080fd5b506102f4610ad2565b6040516103019190613b15565b60405180910390f35b34801561031657600080fd5b5061031f610ad8565b60405161032c9190613b15565b60405180910390f35b34801561034157600080fd5b5061035c60048036038101906103579190612d4f565b610ae5565b005b34801561036a57600080fd5b5061038560048036038101906103809190612e55565b610b45565b6040516103929190613b15565b60405180910390f35b6103a3610bea565b005b6103bf60048036038101906103ba9190612e55565b610ca6565b005b3480156103cd57600080fd5b506103e860048036038101906103e39190612d4f565b610d93565b005b3480156103f657600080fd5b50610411600480360381019061040c9190612cea565b610db3565b60405161041e9190613876565b60405180910390f35b34801561043357600080fd5b5061044e60048036038101906104499190612f4d565b610ead565b005b34801561045c57600080fd5b5061047760048036038101906104729190612f4d565b610f33565b6040516104849190613b15565b60405180910390f35b34801561049957600080fd5b506104b460048036038101906104af9190612f0c565b610fca565b005b3480156104c257600080fd5b506104cb611060565b6040516104d89190613898565b60405180910390f35b3480156104ed57600080fd5b5061050860048036038101906105039190612f0c565b611073565b005b34801561051657600080fd5b50610531600480360381019061052c9190612f4d565b611109565b60405161053e919061380f565b60405180910390f35b34801561055357600080fd5b5061055c6111bb565b60405161056991906138b3565b60405180910390f35b34801561057e57600080fd5b5061059960048036038101906105949190612cea565b611249565b6040516105a69190613b15565b60405180910390f35b3480156105bb57600080fd5b506105c4611301565b005b3480156105d257600080fd5b506105ed60048036038101906105e89190612f4d565b611389565b005b3480156105fb57600080fd5b5061060461140f565b604051610611919061380f565b60405180910390f35b34801561062657600080fd5b5061062f611439565b60405161063c91906138b3565b60405180910390f35b34801561065157600080fd5b5061065a6114c7565b60405161066791906138b3565b60405180910390f35b34801561067c57600080fd5b5061069760048036038101906106929190612e19565b611559565b005b3480156106a557600080fd5b506106c060048036038101906106bb9190612d9e565b6116da565b005b3480156106ce57600080fd5b506106e960048036038101906106e49190612f4d565b61173c565b6040516106f691906138b3565b60405180910390f35b34801561070b57600080fd5b506107146117e6565b6040516107219190613b15565b60405180910390f35b34801561073657600080fd5b50610751600480360381019061074c9190612d13565b6117ec565b60405161075e9190613898565b60405180910390f35b34801561077357600080fd5b5061078e60048036038101906107899190612cea565b611880565b005b60007f780e9d63000000000000000000000000000000000000000000000000000000007bffffffffffffffffffffffffffffffffffffffffffffffffffffffff1916827bffffffffffffffffffffffffffffffffffffffffffffffffffffffff19161480610803575061080282611990565b5b9050919050565b610812611a72565b73ffffffffffffffffffffffffffffffffffffffff1661083061140f565b73ffffffffffffffffffffffffffffffffffffffff1614610886576040517f08c379a000000000000000000000000000000000000000000000000000000000815260040161087d90613a55565b60405180910390fd5b80601060006101000a81548160ff02191690831515021790555050565b6060600080546108b290613e1d565b80601f01602080910402602001604051908101604052809291908181526020018280546108de90613e1d565b801561092b5780601f106109005761010080835404028352916020019161092b565b820191906000526020600020905b81548152906001019060200180831161090e57829003601f168201915b5050505050905090565b600061094082611a7a565b61097f576040517f08c379a000000000000000000000000000000000000000000000000000000000815260040161097690613a35565b60405180910390fd5b6004600083815260200190815260200160002060009054906101000a900473ffffffffffffffffffffffffffffffffffffffff169050919050565b60006109c582611109565b90508073ffffffffffffffffffffffffffffffffffffffff168373ffffffffffffffffffffffffffffffffffffffff161415610a36576040517f08c379a0000000000000000000000000000000000000000000000000000000008152600401610a2d90613ab5565b60405180910390fd5b8073ffffffffffffffffffffffffffffffffffffffff16610a55611a72565b73ffffffffffffffffffffffffffffffffffffffff161480610a845750610a8381610a7e611a72565b6117ec565b5b610ac3576040517f08c379a0000000000000000000000000000000000000000000000000000000008152600401610aba906139b5565b60405180910390fd5b610acd8383611ae6565b505050565b600d5481565b6000600880549050905090565b610af6610af0611a72565b82611b9f565b610b35576040517f08c379a0000000000000000000000000000000000000000000000000000000008152600401610b2c90613ad5565b60405180910390fd5b610b40838383611c7d565b505050565b6000610b5083611249565b8210610b91576040517f08c379a0000000000000000000000000000000000000000000000000000000008152600401610b88906138d5565b60405180910390fd5b600660008473ffffffffffffffffffffffffffffffffffffffff1673ffffffffffffffffffffffffffffffffffffffff168152602001908152602001600020600083815260200190815260200160002054905092915050565b610bf2611a72565b73ffffffffffffffffffffffffffffffffffffffff16610c1061140f565b73ffffffffffffffffffffffffffffffffffffffff1614610c66576040517f08c379a0000000000000000000000000000000000000000000000000000000008152600401610c5d90613a55565b60405180910390fd5b3373ffffffffffffffffffffffffffffffffffffffff166108fc479081150290604051600060405180830381858888f19350505050610ca457600080fd5b565b6000610cb0610ad8565b9050601060009054906101000a900460ff1615610ccc57600080fd5b60008211610cd957600080fd5b600f54821115610ce857600080fd5b600e548282610cf79190613c52565b1115610d0257600080fd5b610d0a61140f565b73ffffffffffffffffffffffffffffffffffffffff163373ffffffffffffffffffffffffffffffffffffffff1614610d575781600d54610d4a9190613cd9565b341015610d5657600080fd5b5b6000600190505b828111610d8d57610d7a848284610d759190613c52565b611ed9565b8080610d8590613e4f565b915050610d5e565b50505050565b610dae838383604051806020016040528060008152506116da565b505050565b60606000610dc083611249565b905060008167ffffffffffffffff811115610e04577f4e487b7100000000000000000000000000000000000000000000000000000000600052604160045260246000fd5b604051908082528060200260200182016040528015610e325781602001602082028036833780820191505090505b50905060005b82811015610ea257610e4a8582610b45565b828281518110610e83577f4e487b7100000000000000000000000000000000000000000000000000000000600052603260045260246000fd5b6020026020010181815250508080610e9a90613e4f565b915050610e38565b508092505050919050565b610eb5611a72565b73ffffffffffffffffffffffffffffffffffffffff16610ed361140f565b73ffffffffffffffffffffffffffffffffffffffff1614610f29576040517f08c379a0000000000000000000000000000000000000000000000000000000008152600401610f2090613a55565b60405180910390fd5b80600d8190555050565b6000610f3d610ad8565b8210610f7e576040517f08c379a0000000000000000000000000000000000000000000000000000000008152600401610f7590613af5565b60405180910390fd5b60088281548110610fb8577f4e487b7100000000000000000000000000000000000000000000000000000000600052603260045260246000fd5b90600052602060002001549050919050565b610fd2611a72565b73ffffffffffffffffffffffffffffffffffffffff16610ff061140f565b73ffffffffffffffffffffffffffffffffffffffff1614611046576040517f08c379a000000000000000000000000000000000000000000000000000000000815260040161103d90613a55565b60405180910390fd5b80600b908051906020019061105c929190612b0e565b5050565b601060009054906101000a900460ff1681565b61107b611a72565b73ffffffffffffffffffffffffffffffffffffffff1661109961140f565b73ffffffffffffffffffffffffffffffffffffffff16146110ef576040517f08c379a00000000000000000000000000000000000000000000000000000000081526004016110e690613a55565b60405180910390fd5b80600c9080519060200190611105929190612b0e565b5050565b6000806002600084815260200190815260200160002060009054906101000a900473ffffffffffffffffffffffffffffffffffffffff169050600073ffffffffffffffffffffffffffffffffffffffff168173ffffffffffffffffffffffffffffffffffffffff1614156111b2576040517f08c379a00000000000000000000000000000000000000000000000000000000081526004016111a9906139f5565b60405180910390fd5b80915050919050565b600b80546111c890613e1d565b80601f01602080910402602001604051908101604052809291908181526020018280546111f490613e1d565b80156112415780601f1061121657610100808354040283529160200191611241565b820191906000526020600020905b81548152906001019060200180831161122457829003601f168201915b505050505081565b60008073ffffffffffffffffffffffffffffffffffffffff168273ffffffffffffffffffffffffffffffffffffffff1614156112ba576040517f08c379a00000000000000000000000000000000000000000000000000000000081526004016112b1906139d5565b60405180910390fd5b600360008373ffffffffffffffffffffffffffffffffffffffff1673ffffffffffffffffffffffffffffffffffffffff168152602001908152602001600020549050919050565b611309611a72565b73ffffffffffffffffffffffffffffffffffffffff1661132761140f565b73ffffffffffffffffffffffffffffffffffffffff161461137d576040517f08c379a000000000000000000000000000000000000000000000000000000000815260040161137490613a55565b60405180910390fd5b6113876000611ef7565b565b611391611a72565b73ffffffffffffffffffffffffffffffffffffffff166113af61140f565b73ffffffffffffffffffffffffffffffffffffffff1614611405576040517f08c379a00000000000000000000000000000000000000000000000000000000081526004016113fc90613a55565b60405180910390fd5b80600f8190555050565b6000600a60009054906101000a900473ffffffffffffffffffffffffffffffffffffffff16905090565b600c805461144690613e1d565b80601f016020809104026020016040519081016040528092919081815260200182805461147290613e1d565b80156114bf5780601f10611494576101008083540402835291602001916114bf565b820191906000526020600020905b8154815290600101906020018083116114a257829003601f168201915b505050505081565b6060600180546114d690613e1d565b80601f016020809104026020016040519081016040528092919081815260200182805461150290613e1d565b801561154f5780601f106115245761010080835404028352916020019161154f565b820191906000526020600020905b81548152906001019060200180831161153257829003601f168201915b5050505050905090565b611561611a72565b73ffffffffffffffffffffffffffffffffffffffff168273ffffffffffffffffffffffffffffffffffffffff1614156115cf576040517f08c379a00000000000000000000000000000000000000000000000000000000081526004016115c690613975565b60405180910390fd5b80600560006115dc611a72565b73ffffffffffffffffffffffffffffffffffffffff1673ffffffffffffffffffffffffffffffffffffffff16815260200190815260200160002060008473ffffffffffffffffffffffffffffffffffffffff1673ffffffffffffffffffffffffffffffffffffffff16815260200190815260200160002060006101000a81548160ff0219169083151502179055508173ffffffffffffffffffffffffffffffffffffffff16611689611a72565b73ffffffffffffffffffffffffffffffffffffffff167f17307eab39ab6107e8899845ad3d59bd9653f200f220920489ca2b5937696c31836040516116ce9190613898565b60405180910390a35050565b6116eb6116e5611a72565b83611b9f565b61172a576040517f08c379a000000000000000000000000000000000000000000000000000000000815260040161172190613ad5565b60405180910390fd5b61173684848484611fbd565b50505050565b606061174782611a7a565b611786576040517f08c379a000000000000000000000000000000000000000000000000000000000815260040161177d90613a95565b60405180910390fd5b6000611790612019565b905060008151116117b057604051806020016040528060008152506117de565b806117ba846120ab565b600c6040516020016117ce939291906137de565b6040516020818303038152906040525b915050919050565b600e5481565b6000600560008473ffffffffffffffffffffffffffffffffffffffff1673ffffffffffffffffffffffffffffffffffffffff16815260200190815260200160002060008373ffffffffffffffffffffffffffffffffffffffff1673ffffffffffffffffffffffffffffffffffffffff16815260200190815260200160002060009054906101000a900460ff16905092915050565b611888611a72565b73ffffffffffffffffffffffffffffffffffffffff166118a661140f565b73ffffffffffffffffffffffffffffffffffffffff16146118fc576040517f08c379a00000000000000000000000000000000000000000000000000000000081526004016118f390613a55565b60405180910390fd5b600073ffffffffffffffffffffffffffffffffffffffff168173ffffffffffffffffffffffffffffffffffffffff16141561196c576040517f08c379a000000000000000000000000000000000000000000000000000000000815260040161196390613915565b60405180910390fd5b61197581611ef7565b50565b600080823b905060008111915050919050565b505050565b60007f80ac58cd000000000000000000000000000000000000000000000000000000007bffffffffffffffffffffffffffffffffffffffffffffffffffffffff1916827bffffffffffffffffffffffffffffffffffffffffffffffffffffffff19161480611a5b57507f5b5e139f000000000000000000000000000000000000000000000000000000007bffffffffffffffffffffffffffffffffffffffffffffffffffffffff1916827bffffffffffffffffffffffffffffffffffffffffffffffffffffffff1916145b80611a6b5750611a6a82612258565b5b9050919050565b600033905090565b60008073ffffffffffffffffffffffffffffffffffffffff166002600084815260200190815260200160002060009054906101000a900473ffffffffffffffffffffffffffffffffffffffff1673ffffffffffffffffffffffffffffffffffffffff1614159050919050565b816004600083815260200190815260200160002060006101000a81548173ffffffffffffffffffffffffffffffffffffffff021916908373ffffffffffffffffffffffffffffffffffffffff160217905550808273ffffffffffffffffffffffffffffffffffffffff16611b5983611109565b73ffffffffffffffffffffffffffffffffffffffff167f8c5be1e5ebec7d5bd14f71427d1e84f3dd0314c0f7b2291e5b200ac8c7c3b92560405160405180910390a45050565b6000611baa82611a7a565b611be9576040517f08c379a0000000000000000000000000000000000000000000000000000000008152600401611be090613995565b60405180910390fd5b6000611bf483611109565b90508073ffffffffffffffffffffffffffffffffffffffff168473ffffffffffffffffffffffffffffffffffffffff161480611c6357508373ffffffffffffffffffffffffffffffffffffffff16611c4b84610935565b73ffffffffffffffffffffffffffffffffffffffff16145b80611c745750611c7381856117ec565b5b91505092915050565b8273ffffffffffffffffffffffffffffffffffffffff16611c9d82611109565b73ffffffffffffffffffffffffffffffffffffffff1614611cf3576040517f08c379a0000000000000000000000000000000000000000000000000000000008152600401611cea90613a75565b60405180910390fd5b600073ffffffffffffffffffffffffffffffffffffffff168273ffffffffffffffffffffffffffffffffffffffff161415611d63576040517f08c379a0000000000000000000000000000000000000000000000000000000008152600401611d5a90613955565b60405180910390fd5b611d6e8383836122c2565b611d79600082611ae6565b6001600360008573ffffffffffffffffffffffffffffffffffffffff1673ffffffffffffffffffffffffffffffffffffffff1681526020019081526020016000206000828254611dc99190613d33565b925050819055506001600360008473ffffffffffffffffffffffffffffffffffffffff1673ffffffffffffffffffffffffffffffffffffffff1681526020019081526020016000206000828254611e209190613c52565b92505081905550816002600083815260200190815260200160002060006101000a81548173ffffffffffffffffffffffffffffffffffffffff021916908373ffffffffffffffffffffffffffffffffffffffff160217905550808273ffffffffffffffffffffffffffffffffffffffff168473ffffffffffffffffffffffffffffffffffffffff167fddf252ad1be2c89b69c2b068fc378daa952ba7f163c4a11628f55a4df523b3ef60405160405180910390a4505050565b611ef38282604051806020016040528060008152506123d6565b5050565b6000600a60009054906101000a900473ffffffffffffffffffffffffffffffffffffffff16905081600a60006101000a81548173ffffffffffffffffffffffffffffffffffffffff021916908373ffffffffffffffffffffffffffffffffffffffff1602179055508173ffffffffffffffffffffffffffffffffffffffff168173ffffffffffffffffffffffffffffffffffffffff167f8be0079c531659141344cd1fd0a4f28419497f9722a3daafe3b4186f6b6457e060405160405180910390a35050565b611fc8848484611c7d565b611fd484848484612431565b612013576040517f08c379a000000000000000000000000000000000000000000000000000000000815260040161200a906138f5565b60405180910390fd5b50505050565b6060600b805461202890613e1d565b80601f016020809104026020016040519081016040528092919081815260200182805461205490613e1d565b80156120a15780601f10612076576101008083540402835291602001916120a1565b820191906000526020600020905b81548152906001019060200180831161208457829003601f168201915b5050505050905090565b606060008214156120f3576040518060400160405280600181526020017f30000000000000000000000000000000000000000000000000000000000000008152509050612253565b600082905060005b6000821461212557808061210e90613e4f565b915050600a8261211e9190613ca8565b91506120fb565b60008167ffffffffffffffff811115612167577f4e487b7100000000000000000000000000000000000000000000000000000000600052604160045260246000fd5b6040519080825280601f01601f1916602001820160405280156121995781602001600182028036833780820191505090505b5090505b6000851461224c576001826121b29190613d33565b9150600a856121c19190613e98565b60306121cd9190613c52565b60f81b818381518110612209577f4e487b7100000000000000000000000000000000000000000000000000000000600052603260045260246000fd5b60200101907effffffffffffffffffffffffffffffffffffffffffffffffffffffffffffff1916908160001a905350600a856122459190613ca8565b945061219d565b8093505050505b919050565b60007f01ffc9a7000000000000000000000000000000000000000000000000000000007bffffffffffffffffffffffffffffffffffffffffffffffffffffffff1916827bffffffffffffffffffffffffffffffffffffffffffffffffffffffff1916149050919050565b6122cd83838361198b565b600073ffffffffffffffffffffffffffffffffffffffff168373ffffffffffffffffffffffffffffffffffffffff1614156123105761230b816125c8565b61234f565b8173ffffffffffffffffffffffffffffffffffffffff168373ffffffffffffffffffffffffffffffffffffffff161461234e5761234d8382612611565b5b5b600073ffffffffffffffffffffffffffffffffffffffff168273ffffffffffffffffffffffffffffffffffffffff1614156123925761238d8161277e565b6123d1565b8273ffffffffffffffffffffffffffffffffffffffff168273ffffffffffffffffffffffffffffffffffffffff16146123d0576123cf82826128c1565b5b5b505050565b6123e08383612940565b6123ed6000848484612431565b61242c576040517f08c379a0000000000000000000000000000000000000000000000000000000008152600401612423906138f5565b60405180910390fd5b505050565b60006124528473ffffffffffffffffffffffffffffffffffffffff16611978565b156125bb578373ffffffffffffffffffffffffffffffffffffffff1663150b7a0261247b611a72565b8786866040518563ffffffff1660e01b815260040161249d949392919061382a565b602060405180830381600087803b1580156124b757600080fd5b505af19250505080156124e857506040513d601f19601f820116820180604052508101906124e59190612ee3565b60015b61256b573d8060008114612518576040519150601f19603f3d011682016040523d82523d6000602084013e61251d565b606091505b50600081511415612563576040517f08c379a000000000000000000000000000000000000000000000000000000000815260040161255a906138f5565b60405180910390fd5b805181602001fd5b63150b7a0260e01b7bffffffffffffffffffffffffffffffffffffffffffffffffffffffff1916817bffffffffffffffffffffffffffffffffffffffffffffffffffffffff1916149150506125c0565b600190505b949350505050565b6008805490506009600083815260200190815260200160002081905550600881908060018154018082558091505060019003906000526020600020016000909190919091505550565b6000600161261e84611249565b6126289190613d33565b905060006007600084815260200190815260200160002054905081811461270d576000600660008673ffffffffffffffffffffffffffffffffffffffff1673ffffffffffffffffffffffffffffffffffffffff168152602001908152602001600020600084815260200190815260200160002054905080600660008773ffffffffffffffffffffffffffffffffffffffff1673ffffffffffffffffffffffffffffffffffffffff168152602001908152602001600020600084815260200190815260200160002081905550816007600083815260200190815260200160002081905550505b6007600084815260200190815260200160002060009055600660008573ffffffffffffffffffffffffffffffffffffffff1673ffffffffffffffffffffffffffffffffffffffff16815260200190815260200160002060008381526020019081526020016000206000905550505050565b600060016008805490506127929190613d33565b90506000600960008481526020019081526020016000205490506000600883815481106127e8577f4e487b7100000000000000000000000000000000000000000000000000000000600052603260045260246000fd5b906000526020600020015490508060088381548110612830577f4e487b7100000000000000000000000000000000000000000000000000000000600052603260045260246000fd5b9060005260206000200181905550816009600083815260200190815260200160002081905550600960008581526020019081526020016000206000905560088054806128a5577f4e487b7100000000000000000000000000000000000000000000000000000000600052603160045260246000fd5b6001900381819060005260206000200160009055905550505050565b60006128cc83611249565b905081600660008573ffffffffffffffffffffffffffffffffffffffff1673ffffffffffffffffffffffffffffffffffffffff168152602001908152602001600020600083815260200190815260200160002081905550806007600084815260200190815260200160002081905550505050565b600073ffffffffffffffffffffffffffffffffffffffff168273ffffffffffffffffffffffffffffffffffffffff1614156129b0576040517f08c379a00000000000000000000000000000000000000000000000000000000081526004016129a790613a15565b60405180910390fd5b6129b981611a7a565b156129f9576040517f08c379a00000000000000000000000000000000000000000000000000000000081526004016129f090613935565b60405180910390fd5b612a05600083836122c2565b6001600360008473ffffffffffffffffffffffffffffffffffffffff1673ffffffffffffffffffffffffffffffffffffffff1681526020019081526020016000206000828254612a559190613c52565b92505081905550816002600083815260200190815260200160002060006101000a81548173ffffffffffffffffffffffffffffffffffffffff021916908373ffffffffffffffffffffffffffffffffffffffff160217905550808273ffffffffffffffffffffffffffffffffffffffff16600073ffffffffffffffffffffffffffffffffffffffff167fddf252ad1be2c89b69c2b068fc378daa952ba7f163c4a11628f55a4df523b3ef60405160405180910390a45050565b828054612b1a90613e1d565b90600052602060002090601f016020900481019282612b3c5760008555612b83565b82601f10612b5557805160ff1916838001178555612b83565b82800160010185558215612b83579182015b82811115612b82578251825591602001919060010190612b67565b5b509050612b909190612b94565b5090565b5b80821115612bad576000816000905550600101612b95565b5090565b6000612bc4612bbf84613b61565b613b30565b905082815260208101848484011115612bdc57600080fd5b612be7848285613ddb565b509392505050565b6000612c02612bfd84613b91565b613b30565b905082815260208101848484011115612c1a57600080fd5b612c25848285613ddb565b509392505050565b600081359050612c3c81613f96565b92915050565b600081359050612c5181613fad565b92915050565b600081359050612c6681613fc4565b92915050565b600081519050612c7b81613fc4565b92915050565b600082601f830112612c9257600080fd5b8135612ca2848260208601612bb1565b91505092915050565b600082601f830112612cbc57600080fd5b8135612ccc848260208601612bef565b91505092915050565b600081359050612ce481613fdb565b92915050565b600060208284031215612cfc57600080fd5b6000612d0a84828501612c2d565b91505092915050565b60008060408385031215612d2657600080fd5b6000612d3485828601612c2d565b9250506020612d4585828601612c2d565b9150509250929050565b600080600060608486031215612d6457600080fd5b6000612d7286828701612c2d565b9350506020612d8386828701612c2d565b9250506040612d9486828701612cd5565b9150509250925092565b60008060008060808587031215612db457600080fd5b6000612dc287828801612c2d565b9450506020612dd387828801612c2d565b9350506040612de487828801612cd5565b925050606085013567ffffffffffffffff811115612e0157600080fd5b612e0d87828801612c81565b91505092959194509250565b60008060408385031215612e2c57600080fd5b6000612e3a85828601612c2d565b9250506020612e4b85828601612c42565b9150509250929050565b60008060408385031215612e6857600080fd5b6000612e7685828601612c2d565b9250506020612e8785828601612cd5565b9150509250929050565b600060208284031215612ea357600080fd5b6000612eb184828501612c42565b91505092915050565b600060208284031215612ecc57600080fd5b6000612eda84828501612c57565b91505092915050565b600060208284031215612ef557600080fd5b6000612f0384828501612c6c565b91505092915050565b600060208284031215612f1e57600080fd5b600082013567ffffffffffffffff811115612f3857600080fd5b612f4484828501612cab565b91505092915050565b600060208284031215612f5f57600080fd5b6000612f6d84828501612cd5565b91505092915050565b6000612f8283836137c0565b60208301905092915050565b612f9781613d67565b82525050565b6000612fa882613be6565b612fb28185613c14565b9350612fbd83613bc1565b8060005b83811015612fee578151612fd58882612f76565b9750612fe083613c07565b925050600181019050612fc1565b5085935050505092915050565b61300481613d79565b82525050565b600061301582613bf1565b61301f8185613c25565b935061302f818560208601613dea565b61303881613f85565b840191505092915050565b600061304e82613bfc565b6130588185613c36565b9350613068818560208601613dea565b61307181613f85565b840191505092915050565b600061308782613bfc565b6130918185613c47565b93506130a1818560208601613dea565b80840191505092915050565b600081546130ba81613e1d565b6130c48186613c47565b945060018216600081146130df57600181146130f057613123565b60ff19831686528186019350613123565b6130f985613bd1565b60005b8381101561311b578154818901526001820191506020810190506130fc565b838801955050505b50505092915050565b6000613139602b83613c36565b91507f455243373231456e756d657261626c653a206f776e657220696e646578206f7560008301527f74206f6620626f756e64730000000000000000000000000000000000000000006020830152604082019050919050565b600061319f603283613c36565b91507f4552433732313a207472616e7366657220746f206e6f6e20455243373231526560008301527f63656976657220696d706c656d656e74657200000000000000000000000000006020830152604082019050919050565b6000613205602683613c36565b91507f4f776e61626c653a206e6577206f776e657220697320746865207a65726f206160008301527f64647265737300000000000000000000000000000000000000000000000000006020830152604082019050919050565b600061326b601c83613c36565b91507f4552433732313a20746f6b656e20616c7265616479206d696e746564000000006000830152602082019050919050565b60006132ab602483613c36565b91507f4552433732313a207472616e7366657220746f20746865207a65726f2061646460008301527f72657373000000000000000000000000000000000000000000000000000000006020830152604082019050919050565b6000613311601983613c36565b91507f4552433732313a20617070726f766520746f2063616c6c6572000000000000006000830152602082019050919050565b6000613351602c83613c36565b91507f4552433732313a206f70657261746f7220717565727920666f72206e6f6e657860008301527f697374656e7420746f6b656e00000000000000000000000000000000000000006020830152604082019050919050565b60006133b7603883613c36565b91507f4552433732313a20617070726f76652063616c6c6572206973206e6f74206f7760008301527f6e6572206e6f7220617070726f76656420666f7220616c6c00000000000000006020830152604082019050919050565b600061341d602a83613c36565b91507f4552433732313a2062616c616e636520717565727920666f7220746865207a6560008301527f726f2061646472657373000000000000000000000000000000000000000000006020830152604082019050919050565b6000613483602983613c36565b91507f4552433732313a206f776e657220717565727920666f72206e6f6e657869737460008301527f656e7420746f6b656e00000000000000000000000000000000000000000000006020830152604082019050919050565b60006134e9602083613c36565b91507f4552433732313a206d696e7420746f20746865207a65726f20616464726573736000830152602082019050919050565b6000613529602c83613c36565b91507f4552433732313a20617070726f76656420717565727920666f72206e6f6e657860008301527f697374656e7420746f6b656e00000000000000000000000000000000000000006020830152604082019050919050565b600061358f602083613c36565b91507f4f776e61626c653a2063616c6c6572206973206e6f7420746865206f776e65726000830152602082019050919050565b60006135cf602983613c36565b91507f4552433732313a207472616e73666572206f6620746f6b656e2074686174206960008301527f73206e6f74206f776e00000000000000000000000000000000000000000000006020830152604082019050919050565b6000613635602f83613c36565b91507f4552433732314d657461646174613a2055524920717565727920666f72206e6f60008301527f6e6578697374656e7420746f6b656e00000000000000000000000000000000006020830152604082019050919050565b600061369b602183613c36565b91507f4552433732313a20617070726f76616c20746f2063757272656e74206f776e6560008301527f72000000000000000000000000000000000000000000000000000000000000006020830152604082019050919050565b6000613701603183613c36565b91507f4552433732313a207472616e736665722063616c6c6572206973206e6f74206f60008301527f776e6572206e6f7220617070726f7665640000000000000000000000000000006020830152604082019050919050565b6000613767602c83613c36565b91507f455243373231456e756d657261626c653a20676c6f62616c20696e646578206f60008301527f7574206f6620626f756e647300000000000000000000000000000000000000006020830152604082019050919050565b6137c981613dd1565b82525050565b6137d881613dd1565b82525050565b60006137ea828661307c565b91506137f6828561307c565b915061380282846130ad565b9150819050949350505050565b60006020820190506138246000830184612f8e565b92915050565b600060808201905061383f6000830187612f8e565b61384c6020830186612f8e565b61385960408301856137cf565b818103606083015261386b818461300a565b905095945050505050565b600060208201905081810360008301526138908184612f9d565b905092915050565b60006020820190506138ad6000830184612ffb565b92915050565b600060208201905081810360008301526138cd8184613043565b905092915050565b600060208201905081810360008301526138ee8161312c565b9050919050565b6000602082019050818103600083015261390e81613192565b9050919050565b6000602082019050818103600083015261392e816131f8565b9050919050565b6000602082019050818103600083015261394e8161325e565b9050919050565b6000602082019050818103600083015261396e8161329e565b9050919050565b6000602082019050818103600083015261398e81613304565b9050919050565b600060208201905081810360008301526139ae81613344565b9050919050565b600060208201905081810360008301526139ce816133aa565b9050919050565b600060208201905081810360008301526139ee81613410565b9050919050565b60006020820190508181036000830152613a0e81613476565b9050919050565b60006020820190508181036000830152613a2e816134dc565b9050919050565b60006020820190508181036000830152613a4e8161351c565b9050919050565b60006020820190508181036000830152613a6e81613582565b9050919050565b60006020820190508181036000830152613a8e816135c2565b9050919050565b60006020820190508181036000830152613aae81613628565b9050919050565b60006020820190508181036000830152613ace8161368e565b9050919050565b60006020820190508181036000830152613aee816136f4565b9050919050565b60006020820190508181036000830152613b0e8161375a565b9050919050565b6000602082019050613b2a60008301846137cf565b92915050565b6000604051905081810181811067ffffffffffffffff82111715613b5757613b56613f56565b5b8060405250919050565b600067ffffffffffffffff821115613b7c57613b7b613f56565b5b601f19601f8301169050602081019050919050565b600067ffffffffffffffff821115613bac57613bab613f56565b5b601f19601f8301169050602081019050919050565b6000819050602082019050919050565b60008190508160005260206000209050919050565b600081519050919050565b600081519050919050565b600081519050919050565b6000602082019050919050565b600082825260208201905092915050565b600082825260208201905092915050565b600082825260208201905092915050565b600081905092915050565b6000613c5d82613dd1565b9150613c6883613dd1565b9250827fffffffffffffffffffffffffffffffffffffffffffffffffffffffffffffffff03821115613c9d57613c9c613ec9565b5b828201905092915050565b6000613cb382613dd1565b9150613cbe83613dd1565b925082613cce57613ccd613ef8565b5b828204905092915050565b6000613ce482613dd1565b9150613cef83613dd1565b9250817fffffffffffffffffffffffffffffffffffffffffffffffffffffffffffffffff0483118215151615613d2857613d27613ec9565b5b828202905092915050565b6000613d3e82613dd1565b9150613d4983613dd1565b925082821015613d5c57613d5b613ec9565b5b828203905092915050565b6000613d7282613db1565b9050919050565b60008115159050919050565b60007fffffffff0000000000000000000000000000000000000000000000000000000082169050919050565b600073ffffffffffffffffffffffffffffffffffffffff82169050919050565b6000819050919050565b82818337600083830152505050565b60005b83811015613e08578082015181840152602081019050613ded565b83811115613e17576000848401525b50505050565b60006002820490506001821680613e3557607f821691505b60208210811415613e4957613e48613f27565b5b50919050565b6000613e5a82613dd1565b91507fffffffffffffffffffffffffffffffffffffffffffffffffffffffffffffffff821415613e8d57613e8c613ec9565b5b600182019050919050565b6000613ea382613dd1565b9150613eae83613dd1565b925082613ebe57613ebd613ef8565b5b828206905092915050565b7f4e487b7100000000000000000000000000000000000000000000000000000000600052601160045260246000fd5b7f4e487b7100000000000000000000000000000000000000000000000000000000600052601260045260246000fd5b7f4e487b7100000000000000000000000000000000000000000000000000000000600052602260045260246000fd5b7f4e487b7100000000000000000000000000000000000000000000000000000000600052604160045260246000fd5b6000601f19601f8301169050919050565b613f9f81613d67565b8114613faa57600080fd5b50565b613fb681613d79565b8114613fc157600080fd5b50565b613fcd81613d85565b8114613fd857600080fd5b50565b613fe481613dd1565b8114613fef57600080fd5b5056fea2646970667358221220bc12cbaaa53a4885031579c838af28310ea66c5f96c2bd1be7385b8a7e4c579c64736f6c63430008000033",
  "linkReferences": {},
  "deployedLinkReferences": {}
}